{
  "contractName": "Product",
  "abi": [
    {
      "inputs": [
        {
          "internalType": "address",
          "name": "_proxyRegistryAddress",
          "type": "address"
        }
      ],
      "stateMutability": "nonpayable",
      "type": "constructor"
    },
    {
      "anonymous": false,
      "inputs": [
        {
          "indexed": true,
          "internalType": "address",
          "name": "owner",
          "type": "address"
        },
        {
          "indexed": true,
          "internalType": "address",
          "name": "approved",
          "type": "address"
        },
        {
          "indexed": true,
          "internalType": "uint256",
          "name": "tokenId",
          "type": "uint256"
        }
      ],
      "name": "Approval",
      "type": "event"
    },
    {
      "anonymous": false,
      "inputs": [
        {
          "indexed": true,
          "internalType": "address",
          "name": "owner",
          "type": "address"
        },
        {
          "indexed": true,
          "internalType": "address",
          "name": "operator",
          "type": "address"
        },
        {
          "indexed": false,
          "internalType": "bool",
          "name": "approved",
          "type": "bool"
        }
      ],
      "name": "ApprovalForAll",
      "type": "event"
    },
    {
      "anonymous": false,
      "inputs": [
        {
          "indexed": false,
          "internalType": "uint256",
          "name": "token_id",
          "type": "uint256"
        },
        {
          "indexed": false,
          "internalType": "uint256",
          "name": "product_id",
          "type": "uint256"
        }
      ],
      "name": "MintToken",
      "type": "event"
    },
    {
      "anonymous": false,
      "inputs": [
        {
          "indexed": true,
          "internalType": "address",
          "name": "previousOwner",
          "type": "address"
        },
        {
          "indexed": true,
          "internalType": "address",
          "name": "newOwner",
          "type": "address"
        }
      ],
      "name": "OwnershipTransferred",
      "type": "event"
    },
    {
      "anonymous": false,
      "inputs": [
        {
          "indexed": true,
          "internalType": "address",
          "name": "from",
          "type": "address"
        },
        {
          "indexed": true,
          "internalType": "address",
          "name": "to",
          "type": "address"
        },
        {
          "indexed": true,
          "internalType": "uint256",
          "name": "tokenId",
          "type": "uint256"
        }
      ],
      "name": "Transfer",
      "type": "event"
    },
    {
      "inputs": [
        {
          "internalType": "address",
          "name": "to",
          "type": "address"
        },
        {
          "internalType": "uint256",
          "name": "tokenId",
          "type": "uint256"
        }
      ],
      "name": "approve",
      "outputs": [],
      "stateMutability": "nonpayable",
      "type": "function"
    },
    {
      "inputs": [
        {
          "internalType": "address",
          "name": "owner",
          "type": "address"
        }
      ],
      "name": "balanceOf",
      "outputs": [
        {
          "internalType": "uint256",
          "name": "",
          "type": "uint256"
        }
      ],
      "stateMutability": "view",
      "type": "function",
      "constant": true
    },
    {
      "inputs": [
        {
          "internalType": "uint256",
          "name": "tokenId",
          "type": "uint256"
        }
      ],
      "name": "getApproved",
      "outputs": [
        {
          "internalType": "address",
          "name": "",
          "type": "address"
        }
      ],
      "stateMutability": "view",
      "type": "function",
      "constant": true
    },
    {
      "inputs": [
        {
          "internalType": "address",
          "name": "owner",
          "type": "address"
        },
        {
          "internalType": "address",
          "name": "operator",
          "type": "address"
        }
      ],
      "name": "isApprovedForAll",
      "outputs": [
        {
          "internalType": "bool",
          "name": "",
          "type": "bool"
        }
      ],
      "stateMutability": "view",
      "type": "function",
      "constant": true
    },
    {
      "inputs": [],
      "name": "name",
      "outputs": [
        {
          "internalType": "string",
          "name": "",
          "type": "string"
        }
      ],
      "stateMutability": "view",
      "type": "function",
      "constant": true
    },
    {
      "inputs": [],
      "name": "owner",
      "outputs": [
        {
          "internalType": "address",
          "name": "",
          "type": "address"
        }
      ],
      "stateMutability": "view",
      "type": "function",
      "constant": true
    },
    {
      "inputs": [
        {
          "internalType": "uint256",
          "name": "tokenId",
          "type": "uint256"
        }
      ],
      "name": "ownerOf",
      "outputs": [
        {
          "internalType": "address",
          "name": "",
          "type": "address"
        }
      ],
      "stateMutability": "view",
      "type": "function",
      "constant": true
    },
    {
      "inputs": [],
      "name": "renounceOwnership",
      "outputs": [],
      "stateMutability": "nonpayable",
      "type": "function"
    },
    {
      "inputs": [
        {
          "internalType": "address",
          "name": "from",
          "type": "address"
        },
        {
          "internalType": "address",
          "name": "to",
          "type": "address"
        },
        {
          "internalType": "uint256",
          "name": "tokenId",
          "type": "uint256"
        }
      ],
      "name": "safeTransferFrom",
      "outputs": [],
      "stateMutability": "nonpayable",
      "type": "function"
    },
    {
      "inputs": [
        {
          "internalType": "address",
          "name": "from",
          "type": "address"
        },
        {
          "internalType": "address",
          "name": "to",
          "type": "address"
        },
        {
          "internalType": "uint256",
          "name": "tokenId",
          "type": "uint256"
        },
        {
          "internalType": "bytes",
          "name": "_data",
          "type": "bytes"
        }
      ],
      "name": "safeTransferFrom",
      "outputs": [],
      "stateMutability": "nonpayable",
      "type": "function"
    },
    {
      "inputs": [
        {
          "internalType": "address",
          "name": "operator",
          "type": "address"
        },
        {
          "internalType": "bool",
          "name": "approved",
          "type": "bool"
        }
      ],
      "name": "setApprovalForAll",
      "outputs": [],
      "stateMutability": "nonpayable",
      "type": "function"
    },
    {
      "inputs": [
        {
          "internalType": "bytes4",
          "name": "interfaceId",
          "type": "bytes4"
        }
      ],
      "name": "supportsInterface",
      "outputs": [
        {
          "internalType": "bool",
          "name": "",
          "type": "bool"
        }
      ],
      "stateMutability": "view",
      "type": "function",
      "constant": true
    },
    {
      "inputs": [],
      "name": "symbol",
      "outputs": [
        {
          "internalType": "string",
          "name": "",
          "type": "string"
        }
      ],
      "stateMutability": "view",
      "type": "function",
      "constant": true
    },
    {
      "inputs": [
        {
          "internalType": "uint256",
          "name": "index",
          "type": "uint256"
        }
      ],
      "name": "tokenByIndex",
      "outputs": [
        {
          "internalType": "uint256",
          "name": "",
          "type": "uint256"
        }
      ],
      "stateMutability": "view",
      "type": "function",
      "constant": true
    },
    {
      "inputs": [
        {
          "internalType": "address",
          "name": "owner",
          "type": "address"
        },
        {
          "internalType": "uint256",
          "name": "index",
          "type": "uint256"
        }
      ],
      "name": "tokenOfOwnerByIndex",
      "outputs": [
        {
          "internalType": "uint256",
          "name": "",
          "type": "uint256"
        }
      ],
      "stateMutability": "view",
      "type": "function",
      "constant": true
    },
    {
      "inputs": [
        {
          "internalType": "uint256",
          "name": "_tokenId",
          "type": "uint256"
        }
      ],
      "name": "tokenURI",
      "outputs": [
        {
          "internalType": "string",
          "name": "",
          "type": "string"
        }
      ],
      "stateMutability": "pure",
      "type": "function",
      "constant": true
    },
    {
      "inputs": [],
      "name": "totalSupply",
      "outputs": [
        {
          "internalType": "uint256",
          "name": "",
          "type": "uint256"
        }
      ],
      "stateMutability": "view",
      "type": "function",
      "constant": true
    },
    {
      "inputs": [
        {
          "internalType": "address",
          "name": "from",
          "type": "address"
        },
        {
          "internalType": "address",
          "name": "to",
          "type": "address"
        },
        {
          "internalType": "uint256",
          "name": "tokenId",
          "type": "uint256"
        }
      ],
      "name": "transferFrom",
      "outputs": [],
      "stateMutability": "nonpayable",
      "type": "function"
    },
    {
      "inputs": [
        {
          "internalType": "address",
          "name": "newOwner",
          "type": "address"
        }
      ],
      "name": "transferOwnership",
      "outputs": [],
      "stateMutability": "nonpayable",
      "type": "function"
    },
    {
      "inputs": [],
      "name": "baseTokenURI",
      "outputs": [
        {
          "internalType": "string",
          "name": "",
          "type": "string"
        }
      ],
      "stateMutability": "pure",
      "type": "function",
      "constant": true
    },
    {
      "inputs": [],
      "name": "contractURI",
      "outputs": [
        {
          "internalType": "string",
          "name": "",
          "type": "string"
        }
      ],
      "stateMutability": "pure",
      "type": "function",
      "constant": true
    },
    {
      "inputs": [
        {
          "internalType": "address",
          "name": "_to",
          "type": "address"
        },
        {
          "internalType": "uint256",
          "name": "newTokenId",
          "type": "uint256"
        }
      ],
      "name": "mintTo",
      "outputs": [],
      "stateMutability": "nonpayable",
      "type": "function"
    },
    {
      "inputs": [
        {
          "internalType": "address",
          "name": "_to",
          "type": "address"
        },
        {
          "internalType": "uint256",
          "name": "token_id",
          "type": "uint256"
        },
        {
          "internalType": "uint256",
          "name": "product_id",
          "type": "uint256"
        },
        {
          "internalType": "string",
          "name": "name",
          "type": "string"
        },
        {
          "internalType": "string",
          "name": "description",
          "type": "string"
        },
        {
          "internalType": "string",
          "name": "image",
          "type": "string"
        },
        {
          "internalType": "string",
          "name": "exturnal_url",
          "type": "string"
        }
      ],
      "name": "mintTo",
      "outputs": [],
      "stateMutability": "nonpayable",
      "type": "function"
    },
    {
      "inputs": [
        {
          "internalType": "uint256",
          "name": "token_id",
          "type": "uint256"
        }
      ],
      "name": "getInfo",
      "outputs": [
        {
          "internalType": "string",
          "name": "",
          "type": "string"
        },
        {
          "internalType": "string",
          "name": "",
          "type": "string"
        },
        {
          "internalType": "string",
          "name": "",
          "type": "string"
        },
        {
          "internalType": "string",
          "name": "",
          "type": "string"
        }
      ],
      "stateMutability": "view",
      "type": "function",
      "constant": true
    }
  ],
  "bytecode": "0x60806040523480156200001157600080fd5b50604051620022f3380380620022f38339810160408190526200003491620001d8565b60405180604001604052806007815260200166141c9bd91d58dd60ca1b8152506040518060400160405280600381526020016214149160ea1b81525082828281600090805190602001906200008b92919062000132565b508051620000a190600190602084019062000132565b5050506000620000b66200012e60201b60201c565b600a80546001600160a01b0319166001600160a01b038316908117909155604051919250906000907f8be0079c531659141344cd1fd0a4f28419497f9722a3daafe3b4186f6b6457e0908290a350600b80546001600160a01b0319166001600160a01b03929092169190911790555062000245915050565b3390565b828054620001409062000208565b90600052602060002090601f016020900481019282620001645760008555620001af565b82601f106200017f57805160ff1916838001178555620001af565b82800160010185558215620001af579182015b82811115620001af57825182559160200191906001019062000192565b50620001bd929150620001c1565b5090565b5b80821115620001bd5760008155600101620001c2565b600060208284031215620001ea578081fd5b81516001600160a01b038116811462000201578182fd5b9392505050565b600181811c908216806200021d57607f821691505b602082108114156200023f57634e487b7160e01b600052602260045260246000fd5b50919050565b61209e80620002556000396000f3fe608060405234801561001057600080fd5b50600436106101285760003560e01c806301ffc9a71461012d57806306fdde0314610155578063081812fc1461016a578063095ea7b31461018a57806318160ddd1461019f5780631a3cd59a146101b157806323b872dd146101d45780632f745c59146101e757806342842e0e146101fa578063449a52f81461020d5780634f6ccce7146102205780636352211e1461023357806370a0823114610246578063715018a6146102595780638da5cb5b1461026157806395d89b4114610269578063a22cb46514610271578063b88d4fde14610284578063c65daeb214610297578063c87b56dd146102aa578063d547cfb7146102bd578063e8a3d485146102c5578063e985e9c5146102cd578063f2fde38b146102e0575b600080fd5b61014061013b366004611c6c565b6102f3565b60405190151581526020015b60405180910390f35b61015d610320565b60405161014c9190611d84565b61017d610178366004611cc0565b6103b2565b60405161014c9190611d33565b61019d610198366004611b76565b61043f565b005b6008545b60405190815260200161014c565b6101c46101bf366004611cc0565b610550565b60405161014c9493929190611d97565b61019d6101e2366004611a89565b6107e2565b6101a36101f5366004611b76565b610813565b61019d610208366004611a89565b6108ac565b61019d61021b366004611b76565b6108c7565b6101a361022e366004611cc0565b610904565b61017d610241366004611cc0565b6109a5565b6101a3610254366004611a35565b610a1c565b61019d610aa3565b61017d610b1c565b61015d610b2b565b61019d61027f366004611b45565b610b3a565b61019d610292366004611ac9565b610c08565b61019d6102a5366004611ba1565b610c40565b61015d6102b8366004611cc0565b610d53565b61015d610d8d565b61015d610dad565b6101406102db366004611a51565b610dcd565b61019d6102ee366004611a35565b610e81565b60006001600160e01b0319821663780e9d6360e01b1480610318575061031882610f71565b90505b919050565b60606000805461032f90611f36565b80601f016020809104026020016040519081016040528092919081815260200182805461035b90611f36565b80156103a85780601f1061037d576101008083540402835291602001916103a8565b820191906000526020600020905b81548152906001019060200180831161038b57829003601f168201915b5050505050905090565b60006103bd82610fc1565b6104235760405162461bcd60e51b815260206004820152602c60248201527f4552433732313a20617070726f76656420717565727920666f72206e6f6e657860448201526b34b9ba32b73a103a37b5b2b760a11b60648201526084015b60405180910390fd5b506000908152600460205260409020546001600160a01b031690565b600061044a826109a5565b9050806001600160a01b0316836001600160a01b031614156104b85760405162461bcd60e51b815260206004820152602160248201527f4552433732313a20617070726f76616c20746f2063757272656e74206f776e656044820152603960f91b606482015260840161041a565b336001600160a01b03821614806104d457506104d48133610fde565b6105415760405162461bcd60e51b815260206004820152603860248201527f4552433732313a20617070726f76652063616c6c6572206973206e6f74206f776044820152771b995c881b9bdc88185c1c1c9bdd995908199bdc88185b1b60421b606482015260840161041a565b61054b838361100c565b505050565b6060806060806000600c600087815260200190815260200160002060405180608001604052908160008201805461058690611f36565b80601f01602080910402602001604051908101604052809291908181526020018280546105b290611f36565b80156105ff5780601f106105d4576101008083540402835291602001916105ff565b820191906000526020600020905b8154815290600101906020018083116105e257829003601f168201915b5050505050815260200160018201805461061890611f36565b80601f016020809104026020016040519081016040528092919081815260200182805461064490611f36565b80156106915780601f1061066657610100808354040283529160200191610691565b820191906000526020600020905b81548152906001019060200180831161067457829003601f168201915b505050505081526020016002820180546106aa90611f36565b80601f01602080910402602001604051908101604052809291908181526020018280546106d690611f36565b80156107235780601f106106f857610100808354040283529160200191610723565b820191906000526020600020905b81548152906001019060200180831161070657829003601f168201915b5050505050815260200160038201805461073c90611f36565b80601f016020809104026020016040519081016040528092919081815260200182805461076890611f36565b80156107b55780601f1061078a576101008083540402835291602001916107b5565b820191906000526020600020905b81548152906001019060200180831161079857829003601f168201915b505050919092525050815160208301516040840151606090940151919a9099509297509550909350505050565b6107ec338261107a565b6108085760405162461bcd60e51b815260040161041a90611e76565b61054b83838361113c565b600061081e83610a1c565b82106108805760405162461bcd60e51b815260206004820152602b60248201527f455243373231456e756d657261626c653a206f776e657220696e646578206f7560448201526a74206f6620626f756e647360a81b606482015260840161041a565b506001600160a01b03821660009081526006602090815260408083208484529091529020545b92915050565b61054b83838360405180602001604052806000815250610c08565b336108d0610b1c565b6001600160a01b0316146108f65760405162461bcd60e51b815260040161041a90611e41565b61090082826112e7565b5050565b600061090f60085490565b82106109725760405162461bcd60e51b815260206004820152602c60248201527f455243373231456e756d657261626c653a20676c6f62616c20696e646578206f60448201526b7574206f6620626f756e647360a01b606482015260840161041a565b6008828154811061099357634e487b7160e01b600052603260045260246000fd5b90600052602060002001549050919050565b6000818152600260205260408120546001600160a01b0316806103185760405162461bcd60e51b815260206004820152602960248201527f4552433732313a206f776e657220717565727920666f72206e6f6e657869737460448201526832b73a103a37b5b2b760b91b606482015260840161041a565b60006001600160a01b038216610a875760405162461bcd60e51b815260206004820152602a60248201527f4552433732313a2062616c616e636520717565727920666f7220746865207a65604482015269726f206164647265737360b01b606482015260840161041a565b506001600160a01b031660009081526003602052604090205490565b33610aac610b1c565b6001600160a01b031614610ad25760405162461bcd60e51b815260040161041a90611e41565b600a546040516000916001600160a01b0316907f8be0079c531659141344cd1fd0a4f28419497f9722a3daafe3b4186f6b6457e0908390a3600a80546001600160a01b0319169055565b600a546001600160a01b031690565b60606001805461032f90611f36565b6001600160a01b038216331415610b8f5760405162461bcd60e51b815260206004820152601960248201527822a9219b99189d1030b8383937bb32903a379031b0b63632b960391b604482015260640161041a565b3360008181526005602090815260408083206001600160a01b0387168085529252909120805460ff1916841515179055906001600160a01b03167f17307eab39ab6107e8899845ad3d59bd9653f200f220920489ca2b5937696c3183604051610bfc911515815260200190565b60405180910390a35050565b610c12338361107a565b610c2e5760405162461bcd60e51b815260040161041a90611e76565b610c3a84848484611425565b50505050565b33610c49610b1c565b6001600160a01b031614610c6f5760405162461bcd60e51b815260040161041a90611e41565b610c7987876108c7565b604080516080810182528581526020808201869052818301849052606082018590526000898152600c8252929092208151805192939192610cbd92849201906118f6565b506020828101518051610cd692600185019201906118f6565b5060408201518051610cf29160028401916020909101906118f6565b5060608201518051610d0e9160038401916020909101906118f6565b505060408051888152602081018890527f0a8baf1a40d5e4a8bfdc9ab231353378d5a3e45cee41d5b5455b4e0dbefa199192500160405180910390a150505050505050565b6060610d5d610d8d565b610d6683611458565b604051602001610d77929190611d04565b6040516020818303038152906040529050919050565b606060405180606001604052806024815260200161204560249139905090565b606060405180606001604052806034815260200161201160349139905090565b600b5460405163c455279160e01b81526000916001600160a01b039081169190841690829063c455279190610e06908890600401611d33565b60206040518083038186803b158015610e1e57600080fd5b505afa158015610e32573d6000803e3d6000fd5b505050506040513d601f19601f82011682018060405250810190610e569190611ca4565b6001600160a01b03161415610e6f5760019150506108a6565b610e798484610fde565b949350505050565b33610e8a610b1c565b6001600160a01b031614610eb05760405162461bcd60e51b815260040161041a90611e41565b6001600160a01b038116610f155760405162461bcd60e51b815260206004820152602660248201527f4f776e61626c653a206e6577206f776e657220697320746865207a65726f206160448201526564647265737360d01b606482015260840161041a565b600a546040516001600160a01b038084169216907f8be0079c531659141344cd1fd0a4f28419497f9722a3daafe3b4186f6b6457e090600090a3600a80546001600160a01b0319166001600160a01b0392909216919091179055565b60006001600160e01b031982166380ac58cd60e01b1480610fa257506001600160e01b03198216635b5e139f60e01b145b8061031857506301ffc9a760e01b6001600160e01b0319831614610318565b6000908152600260205260409020546001600160a01b0316151590565b6001600160a01b03918216600090815260056020908152604080832093909416825291909152205460ff1690565b600081815260046020526040902080546001600160a01b0319166001600160a01b0384169081179091558190611041826109a5565b6001600160a01b03167f8c5be1e5ebec7d5bd14f71427d1e84f3dd0314c0f7b2291e5b200ac8c7c3b92560405160405180910390a45050565b600061108582610fc1565b6110e65760405162461bcd60e51b815260206004820152602c60248201527f4552433732313a206f70657261746f7220717565727920666f72206e6f6e657860448201526b34b9ba32b73a103a37b5b2b760a11b606482015260840161041a565b60006110f1836109a5565b9050806001600160a01b0316846001600160a01b0316148061112c5750836001600160a01b0316611121846103b2565b6001600160a01b0316145b80610e795750610e798185610fde565b826001600160a01b031661114f826109a5565b6001600160a01b0316146111b75760405162461bcd60e51b815260206004820152602960248201527f4552433732313a207472616e73666572206f6620746f6b656e2074686174206960448201526839903737ba1037bbb760b91b606482015260840161041a565b6001600160a01b0382166112195760405162461bcd60e51b8152602060048201526024808201527f4552433732313a207472616e7366657220746f20746865207a65726f206164646044820152637265737360e01b606482015260840161041a565b611224838383611572565b61122f60008261100c565b6001600160a01b0383166000908152600360205260408120805460019290611258908490611ef3565b90915550506001600160a01b0382166000908152600360205260408120805460019290611286908490611ec7565b909155505060008181526002602052604080822080546001600160a01b0319166001600160a01b0386811691821790925591518493918716917fddf252ad1be2c89b69c2b068fc378daa952ba7f163c4a11628f55a4df523b3ef91a4505050565b6001600160a01b03821661133d5760405162461bcd60e51b815260206004820181905260248201527f4552433732313a206d696e7420746f20746865207a65726f2061646472657373604482015260640161041a565b61134681610fc1565b156113925760405162461bcd60e51b815260206004820152601c60248201527b115490cdcc8c4e881d1bdad95b88185b1c9958591e481b5a5b9d195960221b604482015260640161041a565b61139e60008383611572565b6001600160a01b03821660009081526003602052604081208054600192906113c7908490611ec7565b909155505060008181526002602052604080822080546001600160a01b0319166001600160a01b03861690811790915590518392907fddf252ad1be2c89b69c2b068fc378daa952ba7f163c4a11628f55a4df523b3ef908290a45050565b61143084848461113c565b61143c8484848461162f565b610c3a5760405162461bcd60e51b815260040161041a90611def565b60608161147d57506040805180820190915260018152600360fc1b602082015261031b565b8160005b81156114a7578061149181611f71565b91506114a09050600a83611edf565b9150611481565b6000816001600160401b038111156114cf57634e487b7160e01b600052604160045260246000fd5b6040519080825280601f01601f1916602001820160405280156114f9576020820181803683370190505b5090505b8415610e795761150e600183611ef3565b915061151b600a86611f8c565b611526906030611ec7565b60f81b81838151811061154957634e487b7160e01b600052603260045260246000fd5b60200101906001600160f81b031916908160001a90535061156b600a86611edf565b94506114fd565b6001600160a01b0383166115cd576115c881600880546000838152600960205260408120829055600182018355919091527ff3f7a9fe364faab93b216da50a3214154f22a0a2b415b23a84c8169e8b636ee30155565b6115f0565b816001600160a01b0316836001600160a01b0316146115f0576115f0838261173c565b6001600160a01b03821661160c57611607816117d9565b61054b565b826001600160a01b0316826001600160a01b03161461054b5761054b82826118b2565b60006001600160a01b0384163b1561173157604051630a85bd0160e11b81526001600160a01b0385169063150b7a0290611673903390899088908890600401611d47565b602060405180830381600087803b15801561168d57600080fd5b505af19250505080156116bd575060408051601f3d908101601f191682019092526116ba91810190611c88565b60015b611717573d8080156116eb576040519150601f19603f3d011682016040523d82523d6000602084013e6116f0565b606091505b50805161170f5760405162461bcd60e51b815260040161041a90611def565b805181602001fd5b6001600160e01b031916630a85bd0160e11b149050610e79565b506001949350505050565b6000600161174984610a1c565b6117539190611ef3565b6000838152600760205260409020549091508082146117a6576001600160a01b03841660009081526006602090815260408083208584528252808320548484528184208190558352600790915290208190555b5060009182526007602090815260408084208490556001600160a01b039094168352600681528383209183525290812055565b6008546000906117eb90600190611ef3565b6000838152600960205260408120546008805493945090928490811061182157634e487b7160e01b600052603260045260246000fd5b90600052602060002001549050806008838154811061185057634e487b7160e01b600052603260045260246000fd5b600091825260208083209091019290925582815260099091526040808220849055858252812055600880548061189657634e487b7160e01b600052603160045260246000fd5b6001900381819060005260206000200160009055905550505050565b60006118bd83610a1c565b6001600160a01b039093166000908152600660209081526040808320868452825280832085905593825260079052919091209190915550565b82805461190290611f36565b90600052602060002090601f016020900481019282611924576000855561196a565b82601f1061193d57805160ff191683800117855561196a565b8280016001018555821561196a579182015b8281111561196a57825182559160200191906001019061194f565b5061197692915061197a565b5090565b5b80821115611976576000815560010161197b565b60006001600160401b03808411156119a9576119a9611fcc565b604051601f8501601f19908116603f011681019082821181831017156119d1576119d1611fcc565b816040528093508581528686860111156119ea57600080fd5b858560208301376000602087830101525050509392505050565b803561031b81611fe2565b600082601f830112611a1f578081fd5b611a2e8383356020850161198f565b9392505050565b600060208284031215611a46578081fd5b8135611a2e81611fe2565b60008060408385031215611a63578081fd5b8235611a6e81611fe2565b91506020830135611a7e81611fe2565b809150509250929050565b600080600060608486031215611a9d578081fd5b8335611aa881611fe2565b92506020840135611ab881611fe2565b929592945050506040919091013590565b60008060008060808587031215611ade578081fd5b8435611ae981611fe2565b93506020850135611af981611fe2565b92506040850135915060608501356001600160401b03811115611b1a578182fd5b8501601f81018713611b2a578182fd5b611b398782356020840161198f565b91505092959194509250565b60008060408385031215611b57578182fd5b8235611b6281611fe2565b915060208301358015158114611a7e578182fd5b60008060408385031215611b88578182fd5b8235611b9381611fe2565b946020939093013593505050565b600080600080600080600060e0888a031215611bbb578283fd5b611bc488611a04565b9650602088013595506040880135945060608801356001600160401b0380821115611bed578485fd5b611bf98b838c01611a0f565b955060808a0135915080821115611c0e578485fd5b611c1a8b838c01611a0f565b945060a08a0135915080821115611c2f578384fd5b611c3b8b838c01611a0f565b935060c08a0135915080821115611c50578283fd5b50611c5d8a828b01611a0f565b91505092959891949750929550565b600060208284031215611c7d578081fd5b8135611a2e81611ffa565b600060208284031215611c99578081fd5b8151611a2e81611ffa565b600060208284031215611cb5578081fd5b8151611a2e81611fe2565b600060208284031215611cd1578081fd5b5035919050565b60008151808452611cf0816020860160208601611f0a565b601f01601f19169290920160200192915050565b60008351611d16818460208801611f0a565b835190830190611d2a818360208801611f0a565b01949350505050565b6001600160a01b0391909116815260200190565b6001600160a01b0385811682528416602082015260408101839052608060608201819052600090611d7a90830184611cd8565b9695505050505050565b600060208252611a2e6020830184611cd8565b600060808252611daa6080830187611cd8565b8281036020840152611dbc8187611cd8565b90508281036040840152611dd08186611cd8565b90508281036060840152611de48185611cd8565b979650505050505050565b60208082526032908201527f4552433732313a207472616e7366657220746f206e6f6e20455243373231526560408201527131b2b4bb32b91034b6b83632b6b2b73a32b960711b606082015260800190565b6020808252818101527f4f776e61626c653a2063616c6c6572206973206e6f7420746865206f776e6572604082015260600190565b60208082526031908201527f4552433732313a207472616e736665722063616c6c6572206973206e6f74206f6040820152701ddb995c881b9bdc88185c1c1c9bdd9959607a1b606082015260800190565b60008219821115611eda57611eda611fa0565b500190565b600082611eee57611eee611fb6565b500490565b600082821015611f0557611f05611fa0565b500390565b60005b83811015611f25578181015183820152602001611f0d565b83811115610c3a5750506000910152565b600181811c90821680611f4a57607f821691505b60208210811415611f6b57634e487b7160e01b600052602260045260246000fd5b50919050565b6000600019821415611f8557611f85611fa0565b5060010190565b600082611f9b57611f9b611fb6565b500690565b634e487b7160e01b600052601160045260246000fd5b634e487b7160e01b600052601260045260246000fd5b634e487b7160e01b600052604160045260246000fd5b6001600160a01b0381168114611ff757600080fd5b50565b6001600160e01b031981168114611ff757600080fdfe68747470733a2f2f6170692e746f6b656e6d696e742e63632f6170692f636f6e74726163742f70726f647563742d65726337323168747470733a2f2f6170692e746f6b656e6d696e742e63632f6170692f6572633732312fa2646970667358221220aa24a6dcef07fd2a34c7a353a91edad77c17596d507063ffc229b309c98f5cda64736f6c63430008030033",
  "immutableReferences": {},
  "source": "// SPDX-License-Identifier: MIT\n\npragma solidity ^0.8.0;\n\nimport \"./ERC721Tradable.sol\";\n\n/**\n * @title Creature\n * Creature - a contract for my non-fungible creatures.\n */\ncontract Product is ERC721Tradable {\n\n    struct ProductInfo {\n        string name;\n        string description;\n        string exturnal_url;\n        string image;\n    }\n    \n    mapping (uint256 => ProductInfo) products;\n\t\n\tevent MintToken(uint256 token_id, uint256 product_id);\n    \n    constructor(address _proxyRegistryAddress)\n        ERC721Tradable(\"Product\", \"PRD\", _proxyRegistryAddress)\n    {}\n\n    function baseTokenURI() override public pure returns (string memory) {\n        return \"https://api.tokenmint.cc/api/erc721/\";\n    }\n\n    function contractURI() public pure returns (string memory) {\n        return \"https://api.tokenmint.cc/api/contract/product-erc721\";\n    }\n\n    function mintTo(\n        address _to, \n        uint256 token_id, \n        uint256 product_id, \n        string memory name, \n        string memory description, \n        string memory image,\n        string memory exturnal_url\n    ) public onlyOwner {\n    \tmintTo(_to, token_id);\n        products[token_id] = ProductInfo({name:name, description:description, image:image, exturnal_url:exturnal_url});\n    \temit MintToken(token_id, product_id);\n    }\n\n    function getInfo(uint256 token_id) public view returns (string memory, string memory, string memory, string memory)  {\n        ProductInfo memory product = products[token_id];\n        return (product.name, product.description, product.exturnal_url, product.image);\n    }\n    \n}\n",
  "sourcePath": "/Volumes/WORK/MyWork/NFTmarket/proj/NFTMarket/contract/contracts/Product.sol",
  "compiler": {
    "name": "solc",
    "version": "0.8.3+commit.8d00100c.Emscripten.clang"
  },
  "schemaVersion": "3.3.4",
  "updatedAt": "2021-04-14T13:59:09.080Z",
  "networkType": "ethereum",
  "devdoc": {
    "kind": "dev",
    "methods": {
      "approve(address,uint256)": {
        "details": "See {IERC721-approve}."
      },
      "balanceOf(address)": {
        "details": "See {IERC721-balanceOf}."
      },
      "getApproved(uint256)": {
        "details": "See {IERC721-getApproved}."
      },
      "mintTo(address,uint256)": {
        "details": "Mints a token to an address with a tokenURI.",
        "params": {
          "_to": "address of the future owner of the token"
        }
      },
      "name()": {
        "details": "See {IERC721Metadata-name}."
      },
      "owner()": {
        "details": "Returns the address of the current owner."
      },
      "ownerOf(uint256)": {
        "details": "See {IERC721-ownerOf}."
      },
      "renounceOwnership()": {
        "details": "Leaves the contract without owner. It will not be possible to call `onlyOwner` functions anymore. Can only be called by the current owner. NOTE: Renouncing ownership will leave the contract without an owner, thereby removing any functionality that is only available to the owner."
      },
      "safeTransferFrom(address,address,uint256)": {
        "details": "See {IERC721-safeTransferFrom}."
      },
      "safeTransferFrom(address,address,uint256,bytes)": {
        "details": "See {IERC721-safeTransferFrom}."
      },
      "setApprovalForAll(address,bool)": {
        "details": "See {IERC721-setApprovalForAll}."
      },
      "supportsInterface(bytes4)": {
        "details": "See {IERC165-supportsInterface}."
      },
      "symbol()": {
        "details": "See {IERC721Metadata-symbol}."
      },
      "tokenByIndex(uint256)": {
        "details": "See {IERC721Enumerable-tokenByIndex}."
      },
      "tokenOfOwnerByIndex(address,uint256)": {
        "details": "See {IERC721Enumerable-tokenOfOwnerByIndex}."
      },
      "totalSupply()": {
        "details": "See {IERC721Enumerable-totalSupply}."
      },
      "transferFrom(address,address,uint256)": {
        "details": "See {IERC721-transferFrom}."
      },
      "transferOwnership(address)": {
        "details": "Transfers ownership of the contract to a new account (`newOwner`). Can only be called by the current owner."
      }
    },
    "title": "Creature Creature - a contract for my non-fungible creatures.",
    "version": 1
  },
  "userdoc": {
    "kind": "user",
    "methods": {
      "isApprovedForAll(address,address)": {
        "notice": "Override isApprovedForAll to whitelist user's OpenSea proxy accounts to enable gas-less listings."
      }
    },
    "version": 1
  }
}